{
  "abi": [
    {
      "inputs": [
        {
          "internalType": "string",
          "name": "_name",
          "type": "string"
        },
        {
          "internalType": "string",
          "name": "_symbol",
          "type": "string"
        },
        {
          "internalType": "string",
          "name": "_baseURI",
          "type": "string"
        },
        {
          "internalType": "address",
          "name": "_initialOwner",
          "type": "address"
        }
      ],
      "stateMutability": "nonpayable",
      "type": "constructor"
    },
    {
      "inputs": [],
      "name": "MaxSupply",
      "type": "error"
    },
    {
      "inputs": [],
      "name": "MintPriceNotPaid",
      "type": "error"
    },
    {
      "inputs": [],
      "name": "NonExistentTokenURI",
      "type": "error"
    },
    {
      "inputs": [
        {
          "internalType": "address",
          "name": "owner",
          "type": "address"
        }
      ],
      "name": "OwnableInvalidOwner",
      "type": "error"
    },
    {
      "inputs": [
        {
          "internalType": "address",
          "name": "account",
          "type": "address"
        }
      ],
      "name": "OwnableUnauthorizedAccount",
      "type": "error"
    },
    {
      "inputs": [],
      "name": "WithdrawTransfer",
      "type": "error"
    },
    {
      "anonymous": false,
      "inputs": [
        {
          "indexed": true,
          "internalType": "address",
          "name": "owner",
          "type": "address"
        },
        {
          "indexed": true,
          "internalType": "address",
          "name": "spender",
          "type": "address"
        },
        {
          "indexed": true,
          "internalType": "uint256",
          "name": "id",
          "type": "uint256"
        }
      ],
      "name": "Approval",
      "type": "event"
    },
    {
      "anonymous": false,
      "inputs": [
        {
          "indexed": true,
          "internalType": "address",
          "name": "owner",
          "type": "address"
        },
        {
          "indexed": true,
          "internalType": "address",
          "name": "operator",
          "type": "address"
        },
        {
          "indexed": false,
          "internalType": "bool",
          "name": "approved",
          "type": "bool"
        }
      ],
      "name": "ApprovalForAll",
      "type": "event"
    },
    {
      "anonymous": false,
      "inputs": [
        {
          "indexed": true,
          "internalType": "address",
          "name": "previousOwner",
          "type": "address"
        },
        {
          "indexed": true,
          "internalType": "address",
          "name": "newOwner",
          "type": "address"
        }
      ],
      "name": "OwnershipTransferred",
      "type": "event"
    },
    {
      "anonymous": false,
      "inputs": [
        {
          "indexed": true,
          "internalType": "address",
          "name": "from",
          "type": "address"
        },
        {
          "indexed": true,
          "internalType": "address",
          "name": "to",
          "type": "address"
        },
        {
          "indexed": true,
          "internalType": "uint256",
          "name": "id",
          "type": "uint256"
        }
      ],
      "name": "Transfer",
      "type": "event"
    },
    {
      "inputs": [],
      "name": "MINT_PRICE",
      "outputs": [
        {
          "internalType": "uint256",
          "name": "",
          "type": "uint256"
        }
      ],
      "stateMutability": "view",
      "type": "function"
    },
    {
      "inputs": [],
      "name": "TOTAL_SUPPLY",
      "outputs": [
        {
          "internalType": "uint256",
          "name": "",
          "type": "uint256"
        }
      ],
      "stateMutability": "view",
      "type": "function"
    },
    {
      "inputs": [
        {
          "internalType": "address",
          "name": "spender",
          "type": "address"
        },
        {
          "internalType": "uint256",
          "name": "id",
          "type": "uint256"
        }
      ],
      "name": "approve",
      "outputs": [],
      "stateMutability": "nonpayable",
      "type": "function"
    },
    {
      "inputs": [
        {
          "internalType": "address",
          "name": "owner",
          "type": "address"
        }
      ],
      "name": "balanceOf",
      "outputs": [
        {
          "internalType": "uint256",
          "name": "",
          "type": "uint256"
        }
      ],
      "stateMutability": "view",
      "type": "function"
    },
    {
      "inputs": [],
      "name": "baseURI",
      "outputs": [
        {
          "internalType": "string",
          "name": "",
          "type": "string"
        }
      ],
      "stateMutability": "view",
      "type": "function"
    },
    {
      "inputs": [],
      "name": "currentTokenId",
      "outputs": [
        {
          "internalType": "uint256",
          "name": "",
          "type": "uint256"
        }
      ],
      "stateMutability": "view",
      "type": "function"
    },
    {
      "inputs": [
        {
          "internalType": "uint256",
          "name": "",
          "type": "uint256"
        }
      ],
      "name": "getApproved",
      "outputs": [
        {
          "internalType": "address",
          "name": "",
          "type": "address"
        }
      ],
      "stateMutability": "view",
      "type": "function"
    },
    {
      "inputs": [
        {
          "internalType": "address",
          "name": "",
          "type": "address"
        },
        {
          "internalType": "address",
          "name": "",
          "type": "address"
        }
      ],
      "name": "isApprovedForAll",
      "outputs": [
        {
          "internalType": "bool",
          "name": "",
          "type": "bool"
        }
      ],
      "stateMutability": "view",
      "type": "function"
    },
    {
      "inputs": [
        {
          "internalType": "address",
          "name": "recipient",
          "type": "address"
        }
      ],
      "name": "mintTo",
      "outputs": [
        {
          "internalType": "uint256",
          "name": "",
          "type": "uint256"
        }
      ],
      "stateMutability": "payable",
      "type": "function"
    },
    {
      "inputs": [],
      "name": "name",
      "outputs": [
        {
          "internalType": "string",
          "name": "",
          "type": "string"
        }
      ],
      "stateMutability": "view",
      "type": "function"
    },
    {
      "inputs": [],
      "name": "owner",
      "outputs": [
        {
          "internalType": "address",
          "name": "",
          "type": "address"
        }
      ],
      "stateMutability": "view",
      "type": "function"
    },
    {
      "inputs": [
        {
          "internalType": "uint256",
          "name": "id",
          "type": "uint256"
        }
      ],
      "name": "ownerOf",
      "outputs": [
        {
          "internalType": "address",
          "name": "owner",
          "type": "address"
        }
      ],
      "stateMutability": "view",
      "type": "function"
    },
    {
      "inputs": [],
      "name": "renounceOwnership",
      "outputs": [],
      "stateMutability": "nonpayable",
      "type": "function"
    },
    {
      "inputs": [
        {
          "internalType": "address",
          "name": "from",
          "type": "address"
        },
        {
          "internalType": "address",
          "name": "to",
          "type": "address"
        },
        {
          "internalType": "uint256",
          "name": "id",
          "type": "uint256"
        }
      ],
      "name": "safeTransferFrom",
      "outputs": [],
      "stateMutability": "nonpayable",
      "type": "function"
    },
    {
      "inputs": [
        {
          "internalType": "address",
          "name": "from",
          "type": "address"
        },
        {
          "internalType": "address",
          "name": "to",
          "type": "address"
        },
        {
          "internalType": "uint256",
          "name": "id",
          "type": "uint256"
        },
        {
          "internalType": "bytes",
          "name": "data",
          "type": "bytes"
        }
      ],
      "name": "safeTransferFrom",
      "outputs": [],
      "stateMutability": "nonpayable",
      "type": "function"
    },
    {
      "inputs": [
        {
          "internalType": "address",
          "name": "operator",
          "type": "address"
        },
        {
          "internalType": "bool",
          "name": "approved",
          "type": "bool"
        }
      ],
      "name": "setApprovalForAll",
      "outputs": [],
      "stateMutability": "nonpayable",
      "type": "function"
    },
    {
      "inputs": [
        {
          "internalType": "bytes4",
          "name": "interfaceId",
          "type": "bytes4"
        }
      ],
      "name": "supportsInterface",
      "outputs": [
        {
          "internalType": "bool",
          "name": "",
          "type": "bool"
        }
      ],
      "stateMutability": "view",
      "type": "function"
    },
    {
      "inputs": [],
      "name": "symbol",
      "outputs": [
        {
          "internalType": "string",
          "name": "",
          "type": "string"
        }
      ],
      "stateMutability": "view",
      "type": "function"
    },
    {
      "inputs": [
        {
          "internalType": "uint256",
          "name": "tokenId",
          "type": "uint256"
        }
      ],
      "name": "tokenURI",
      "outputs": [
        {
          "internalType": "string",
          "name": "",
          "type": "string"
        }
      ],
      "stateMutability": "view",
      "type": "function"
    },
    {
      "inputs": [
        {
          "internalType": "address",
          "name": "from",
          "type": "address"
        },
        {
          "internalType": "address",
          "name": "to",
          "type": "address"
        },
        {
          "internalType": "uint256",
          "name": "id",
          "type": "uint256"
        }
      ],
      "name": "transferFrom",
      "outputs": [],
      "stateMutability": "nonpayable",
      "type": "function"
    },
    {
      "inputs": [
        {
          "internalType": "address",
          "name": "newOwner",
          "type": "address"
        }
      ],
      "name": "transferOwnership",
      "outputs": [],
      "stateMutability": "nonpayable",
      "type": "function"
    },
    {
      "inputs": [
        {
          "internalType": "address payable",
          "name": "payee",
          "type": "address"
        }
      ],
      "name": "withdrawPayments",
      "outputs": [],
      "stateMutability": "nonpayable",
      "type": "function"
    }
  ],
  "bytecode": {
    "object": "0x60806040523480156200001157600080fd5b506040516200185b3803806200185b8339810160408190526200003491620001c2565b808484600062000045838262000304565b50600162000054828262000304565b5050506001600160a01b0381166200008657604051631e4fbdf760e01b81526000600482015260240160405180910390fd5b6200009181620000ab565b506007620000a0838262000304565b5050505050620003d0565b600680546001600160a01b038381166001600160a01b0319831681179093556040519116919082907f8be0079c531659141344cd1fd0a4f28419497f9722a3daafe3b4186f6b6457e090600090a35050565b634e487b7160e01b600052604160045260246000fd5b600082601f8301126200012557600080fd5b81516001600160401b0380821115620001425762000142620000fd565b604051601f8301601f19908116603f011681019082821181831017156200016d576200016d620000fd565b816040528381526020925086838588010111156200018a57600080fd5b600091505b83821015620001ae57858201830151818301840152908201906200018f565b600093810190920192909252949350505050565b60008060008060808587031215620001d957600080fd5b84516001600160401b0380821115620001f157600080fd5b620001ff8883890162000113565b955060208701519150808211156200021657600080fd5b620002248883890162000113565b945060408701519150808211156200023b57600080fd5b506200024a8782880162000113565b606087015190935090506001600160a01b03811681146200026a57600080fd5b939692955090935050565b600181811c908216806200028a57607f821691505b602082108103620002ab57634e487b7160e01b600052602260045260246000fd5b50919050565b601f821115620002ff57600081815260208120601f850160051c81016020861015620002da5750805b601f850160051c820191505b81811015620002fb57828155600101620002e6565b5050505b505050565b81516001600160401b03811115620003205762000320620000fd565b620003388162000331845462000275565b84620002b1565b602080601f831160018114620003705760008415620003575750858301515b600019600386901b1c1916600185901b178555620002fb565b600085815260208120601f198616915b82811015620003a15788860151825594840194600190910190840162000380565b5085821015620003c05787850151600019600388901b60f8161c191681555b5050505050600190811b01905550565b61147b80620003e06000396000f3fe6080604052600436106101345760003560e01c8063715018a6116100ab578063a22cb4651161006f578063a22cb4651461034a578063b88d4fde1461036a578063c002d23d1461038a578063c87b56dd146103a5578063e985e9c5146103c5578063f2fde38b1461040057600080fd5b8063715018a6146102d9578063755edd17146102ee5780638da5cb5b14610301578063902d55a51461031f57806395d89b411461033557600080fd5b806323b872dd116100fd57806323b872dd1461022457806331b3eb941461024457806342842e0e146102645780636352211e146102845780636c0360eb146102a457806370a08231146102b957600080fd5b80629a9b7b1461013957806301ffc9a71461016257806306fdde0314610192578063081812fc146101b4578063095ea7b314610202575b600080fd5b34801561014557600080fd5b5061014f60085481565b6040519081526020015b60405180910390f35b34801561016e57600080fd5b5061018261017d36600461102f565b610420565b6040519015158152602001610159565b34801561019e57600080fd5b506101a7610472565b6040516101599190611077565b3480156101c057600080fd5b506101ea6101cf3660046110aa565b6004602052600090815260409020546001600160a01b031681565b6040516001600160a01b039091168152602001610159565b34801561020e57600080fd5b5061022261021d3660046110d8565b610500565b005b34801561023057600080fd5b5061022261023f366004611104565b6105e7565b34801561025057600080fd5b5061022261025f366004611145565b6107ae565b34801561027057600080fd5b5061022261027f366004611104565b61082f565b34801561029057600080fd5b506101ea61029f3660046110aa565b6108ff565b3480156102b057600080fd5b506101a7610956565b3480156102c557600080fd5b5061014f6102d4366004611145565b610963565b3480156102e557600080fd5b506102226109c6565b61014f6102fc366004611145565b6109da565b34801561030d57600080fd5b506006546001600160a01b03166101ea565b34801561032b57600080fd5b5061014f61271081565b34801561034157600080fd5b506101a7610a48565b34801561035657600080fd5b50610222610365366004611162565b610a55565b34801561037657600080fd5b506102226103853660046111a0565b610ac1565b34801561039657600080fd5b5061014f66038d7ea4c6800081565b3480156103b157600080fd5b506101a76103c03660046110aa565b610b86565b3480156103d157600080fd5b506101826103e036600461123f565b600560209081526000928352604080842090915290825290205460ff1681565b34801561040c57600080fd5b5061022261041b366004611145565b610c16565b60006301ffc9a760e01b6001600160e01b03198316148061045157506380ac58cd60e01b6001600160e01b03198316145b8061046c5750635b5e139f60e01b6001600160e01b03198316145b92915050565b6000805461047f9061126d565b80601f01602080910402602001604051908101604052809291908181526020018280546104ab9061126d565b80156104f85780601f106104cd576101008083540402835291602001916104f8565b820191906000526020600020905b8154815290600101906020018083116104db57829003601f168201915b505050505081565b6000818152600260205260409020546001600160a01b03163381148061054957506001600160a01b038116600090815260056020908152604080832033845290915290205460ff165b61058b5760405162461bcd60e51b815260206004820152600e60248201526d1393d517d055551213d49256915160921b60448201526064015b60405180910390fd5b60008281526004602052604080822080546001600160a01b0319166001600160a01b0387811691821790925591518593918516917f8c5be1e5ebec7d5bd14f71427d1e84f3dd0314c0f7b2291e5b200ac8c7c3b92591a4505050565b6000818152600260205260409020546001600160a01b0384811691161461063d5760405162461bcd60e51b815260206004820152600a60248201526957524f4e475f46524f4d60b01b6044820152606401610582565b6001600160a01b0382166106875760405162461bcd60e51b81526020600482015260116024820152701253959053125117d49150d25412515395607a1b6044820152606401610582565b336001600160a01b03841614806106c157506001600160a01b038316600090815260056020908152604080832033845290915290205460ff165b806106e257506000818152600460205260409020546001600160a01b031633145b61071f5760405162461bcd60e51b815260206004820152600e60248201526d1393d517d055551213d49256915160921b6044820152606401610582565b6001600160a01b0380841660008181526003602090815260408083208054600019019055938616808352848320805460010190558583526002825284832080546001600160a01b03199081168317909155600490925284832080549092169091559251849392917fddf252ad1be2c89b69c2b068fc378daa952ba7f163c4a11628f55a4df523b3ef91a4505050565b6107b6610c54565b60405147906000906001600160a01b0384169083908381818185875af1925050503d8060008114610803576040519150601f19603f3d011682016040523d82523d6000602084013e610808565b606091505b505090508061082a5760405163d23a9e8960e01b815260040160405180910390fd5b505050565b61083a8383836105e7565b6001600160a01b0382163b15806108e35750604051630a85bd0160e11b8082523360048301526001600160a01b03858116602484015260448301849052608060648401526000608484015290919084169063150b7a029060a4016020604051808303816000875af11580156108b3573d6000803e3d6000fd5b505050506040513d601f19601f820116820180604052508101906108d791906112a7565b6001600160e01b031916145b61082a5760405162461bcd60e51b8152600401610582906112c4565b6000818152600260205260409020546001600160a01b0316806109515760405162461bcd60e51b815260206004820152600a6024820152691393d517d3525395115160b21b6044820152606401610582565b919050565b6007805461047f9061126d565b60006001600160a01b0382166109aa5760405162461bcd60e51b815260206004820152600c60248201526b5a45524f5f4144445245535360a01b6044820152606401610582565b506001600160a01b031660009081526003602052604090205490565b6109ce610c54565b6109d86000610c81565b565b600066038d7ea4c680003414610a03576040516310f0c8f160e11b815260040160405180910390fd5b6000600860008154610a14906112ee565b91829055509050612710811115610a3e57604051632cdb04a160e21b815260040160405180910390fd5b61046c8382610cd3565b6001805461047f9061126d565b3360008181526005602090815260408083206001600160a01b03871680855290835292819020805460ff191686151590811790915590519081529192917f17307eab39ab6107e8899845ad3d59bd9653f200f220920489ca2b5937696c31910160405180910390a35050565b610acc8585856105e7565b6001600160a01b0384163b1580610b635750604051630a85bd0160e11b808252906001600160a01b0386169063150b7a0290610b149033908a90899089908990600401611315565b6020604051808303816000875af1158015610b33573d6000803e3d6000fd5b505050506040513d601f19601f82011682018060405250810190610b5791906112a7565b6001600160e01b031916145b610b7f5760405162461bcd60e51b8152600401610582906112c4565b5050505050565b60606000610b93836108ff565b6001600160a01b031603610bba5760405163d872946b60e01b815260040160405180910390fd5b600060078054610bc99061126d565b905011610be5576040518060200160405280600081525061046c565b6007610bf083610da3565b604051602001610c01929190611385565b60405160208183030381529060405292915050565b610c1e610c54565b6001600160a01b038116610c4857604051631e4fbdf760e01b815260006004820152602401610582565b610c5181610c81565b50565b6006546001600160a01b031633146109d85760405163118cdaa760e01b8152336004820152602401610582565b600680546001600160a01b038381166001600160a01b0319831681179093556040519116919082907f8be0079c531659141344cd1fd0a4f28419497f9722a3daafe3b4186f6b6457e090600090a35050565b610cdd8282610e36565b6001600160a01b0382163b1580610d835750604051630a85bd0160e11b80825233600483015260006024830181905260448301849052608060648401526084830152906001600160a01b0384169063150b7a029060a4016020604051808303816000875af1158015610d53573d6000803e3d6000fd5b505050506040513d601f19601f82011682018060405250810190610d7791906112a7565b6001600160e01b031916145b610d9f5760405162461bcd60e51b8152600401610582906112c4565b5050565b60606000610db083610f41565b600101905060008167ffffffffffffffff811115610dd057610dd061142f565b6040519080825280601f01601f191660200182016040528015610dfa576020820181803683370190505b5090508181016020015b600019016f181899199a1a9b1b9c1cb0b131b232b360811b600a86061a8153600a8504945084610e0457509392505050565b6001600160a01b038216610e805760405162461bcd60e51b81526020600482015260116024820152701253959053125117d49150d25412515395607a1b6044820152606401610582565b6000818152600260205260409020546001600160a01b031615610ed65760405162461bcd60e51b815260206004820152600e60248201526d1053149150511657d3525395115160921b6044820152606401610582565b6001600160a01b038216600081815260036020908152604080832080546001019055848352600290915280822080546001600160a01b0319168417905551839291907fddf252ad1be2c89b69c2b068fc378daa952ba7f163c4a11628f55a4df523b3ef908290a45050565b60008072184f03e93ff9f4daa797ed6e38ed64bf6a1f0160401b8310610f805772184f03e93ff9f4daa797ed6e38ed64bf6a1f0160401b830492506040015b6d04ee2d6d415b85acef81000000008310610fac576d04ee2d6d415b85acef8100000000830492506020015b662386f26fc100008310610fca57662386f26fc10000830492506010015b6305f5e1008310610fe2576305f5e100830492506008015b6127108310610ff657612710830492506004015b60648310611008576064830492506002015b600a831061046c5760010192915050565b6001600160e01b031981168114610c5157600080fd5b60006020828403121561104157600080fd5b813561104c81611019565b9392505050565b60005b8381101561106e578181015183820152602001611056565b50506000910152565b6020815260008251806020840152611096816040850160208701611053565b601f01601f19169190910160400192915050565b6000602082840312156110bc57600080fd5b5035919050565b6001600160a01b0381168114610c5157600080fd5b600080604083850312156110eb57600080fd5b82356110f6816110c3565b946020939093013593505050565b60008060006060848603121561111957600080fd5b8335611124816110c3565b92506020840135611134816110c3565b929592945050506040919091013590565b60006020828403121561115757600080fd5b813561104c816110c3565b6000806040838503121561117557600080fd5b8235611180816110c3565b91506020830135801515811461119557600080fd5b809150509250929050565b6000806000806000608086880312156111b857600080fd5b85356111c3816110c3565b945060208601356111d3816110c3565b935060408601359250606086013567ffffffffffffffff808211156111f757600080fd5b818801915088601f83011261120b57600080fd5b81358181111561121a57600080fd5b89602082850101111561122c57600080fd5b9699959850939650602001949392505050565b6000806040838503121561125257600080fd5b823561125d816110c3565b91506020830135611195816110c3565b600181811c9082168061128157607f821691505b6020821081036112a157634e487b7160e01b600052602260045260246000fd5b50919050565b6000602082840312156112b957600080fd5b815161104c81611019565b60208082526010908201526f155394d0519157d49150d2541251539560821b604082015260600190565b60006001820161130e57634e487b7160e01b600052601160045260246000fd5b5060010190565b6001600160a01b038681168252851660208201526040810184905260806060820181905281018290526000828460a0840137600060a0848401015260a0601f19601f85011683010190509695505050505050565b6000815161137b818560208601611053565b9290920192915050565b600080845481600182811c9150808316806113a157607f831692505b602080841082036113c057634e487b7160e01b86526022600452602486fd5b8180156113d457600181146113e957611416565b60ff1986168952841515850289019650611416565b60008b81526020902060005b8681101561140e5781548b8201529085019083016113f5565b505084890196505b5050505050506114268185611369565b95945050505050565b634e487b7160e01b600052604160045260246000fdfea264697066735822122010ad12216cfedd93564e3df2158810f4375ca5c8df21abcde2e55f79d319f20564736f6c63430008150033",
    "linkReferences": {}
  },
  "methodIdentifiers": {
    "MINT_PRICE()": "c002d23d",
    "TOTAL_SUPPLY()": "902d55a5",
    "approve(address,uint256)": "095ea7b3",
    "balanceOf(address)": "70a08231",
    "baseURI()": "6c0360eb",
    "currentTokenId()": "009a9b7b",
    "getApproved(uint256)": "081812fc",
    "isApprovedForAll(address,address)": "e985e9c5",
    "mintTo(address)": "755edd17",
    "name()": "06fdde03",
    "owner()": "8da5cb5b",
    "ownerOf(uint256)": "6352211e",
    "renounceOwnership()": "715018a6",
    "safeTransferFrom(address,address,uint256)": "42842e0e",
    "safeTransferFrom(address,address,uint256,bytes)": "b88d4fde",
    "setApprovalForAll(address,bool)": "a22cb465",
    "supportsInterface(bytes4)": "01ffc9a7",
    "symbol()": "95d89b41",
    "tokenURI(uint256)": "c87b56dd",
    "transferFrom(address,address,uint256)": "23b872dd",
    "transferOwnership(address)": "f2fde38b",
    "withdrawPayments(address)": "31b3eb94"
  },
  "id": 26
}